{
  "contractName": "ERC721Metadata",
  "abi": [
    {
      "inputs": [
        {
          "internalType": "string",
          "name": "named",
          "type": "string"
        },
        {
          "internalType": "string",
          "name": "symbolified",
          "type": "string"
        }
      ],
      "stateMutability": "nonpayable",
      "type": "constructor"
    },
    {
      "inputs": [
        {
          "internalType": "bytes4",
          "name": "interfaceId",
          "type": "bytes4"
        }
      ],
      "name": "supportsInterface",
      "outputs": [
        {
          "internalType": "bool",
          "name": "",
          "type": "bool"
        }
      ],
      "stateMutability": "view",
      "type": "function"
    },
    {
      "inputs": [],
      "name": "name",
      "outputs": [
        {
          "internalType": "string",
          "name": "result",
          "type": "string"
        }
      ],
      "stateMutability": "view",
      "type": "function"
    },
    {
      "inputs": [],
      "name": "symbol",
      "outputs": [
        {
          "internalType": "string",
          "name": "result",
          "type": "string"
        }
      ],
      "stateMutability": "view",
      "type": "function"
    }
  ],
  "bytecode": "0x60806040523480156200001157600080fd5b50604051620009e6380380620009e683398181016040528101906200003791906200041a565b620000687f01ffc9a7a5cef8baa21ed3c5c0d7e23accb804b619e9333b597f47a0d84076e2620000f560201b60201c565b816001908051906020019062000080929190620001cd565b50806002908051906020019062000099929190620001cd565b50620000ed7f4e41a1fba8c4388cabd027cc2dd179401923cc5a857d7a581f14d3be4d26819e7f06fdde0383f15d582d1a74511486c9ddf862a882fb7904b3d9fe9b8b8e58a79618620000f560201b60201c565b505062000587565b63ffffffff60e01b817bffffffffffffffffffffffffffffffffffffffffffffffffffffffff1916141562000161576040517f08c379a0000000000000000000000000000000000000000000000000000000008152600401620001589062000500565b60405180910390fd5b6001600080837bffffffffffffffffffffffffffffffffffffffffffffffffffffffff19167bffffffffffffffffffffffffffffffffffffffffffffffffffffffff1916815260200190815260200160002060006101000a81548160ff02191690831515021790555050565b828054620001db9062000551565b90600052602060002090601f016020900481019282620001ff57600085556200024b565b82601f106200021a57805160ff19168380011785556200024b565b828001600101855582156200024b579182015b828111156200024a5782518255916020019190600101906200022d565b5b5090506200025a91906200025e565b5090565b5b80821115620002795760008160009055506001016200025f565b5090565b6000604051905090565b600080fd5b600080fd5b600080fd5b600080fd5b6000601f19601f8301169050919050565b7f4e487b7100000000000000000000000000000000000000000000000000000000600052604160045260246000fd5b620002e6826200029b565b810181811067ffffffffffffffff82111715620003085762000307620002ac565b5b80604052505050565b60006200031d6200027d565b90506200032b8282620002db565b919050565b600067ffffffffffffffff8211156200034e576200034d620002ac565b5b62000359826200029b565b9050602081019050919050565b60005b838110156200038657808201518184015260208101905062000369565b8381111562000396576000848401525b50505050565b6000620003b3620003ad8462000330565b62000311565b905082815260208101848484011115620003d257620003d162000296565b5b620003df84828562000366565b509392505050565b600082601f830112620003ff57620003fe62000291565b5b8151620004118482602086016200039c565b91505092915050565b6000806040838503121562000434576200043362000287565b5b600083015167ffffffffffffffff8111156200045557620004546200028c565b5b6200046385828601620003e7565b925050602083015167ffffffffffffffff8111156200048757620004866200028c565b5b6200049585828601620003e7565b9150509250929050565b600082825260208201905092915050565b7f496e76616c696420696e74657266616365207265717565737400000000000000600082015250565b6000620004e86019836200049f565b9150620004f582620004b0565b602082019050919050565b600060208201905081810360008301526200051b81620004d9565b9050919050565b7f4e487b7100000000000000000000000000000000000000000000000000000000600052602260045260246000fd5b600060028204905060018216806200056a57607f821691505b6020821081141562000581576200058062000522565b5b50919050565b61044f80620005976000396000f3fe608060405234801561001057600080fd5b50600436106100415760003560e01c806301ffc9a71461004657806306fdde031461007657806395d89b4114610094575b600080fd5b610060600480360381019061005b919061029a565b6100b2565b60405161006d91906102e2565b60405180910390f35b61007e610119565b60405161008b9190610396565b60405180910390f35b61009c6101ab565b6040516100a99190610396565b60405180910390f35b6000806000837bffffffffffffffffffffffffffffffffffffffffffffffffffffffff19167bffffffffffffffffffffffffffffffffffffffffffffffffffffffff1916815260200190815260200160002060009054906101000a900460ff169050919050565b606060018054610128906103e7565b80601f0160208091040260200160405190810160405280929190818152602001828054610154906103e7565b80156101a15780601f10610176576101008083540402835291602001916101a1565b820191906000526020600020905b81548152906001019060200180831161018457829003601f168201915b5050505050905090565b6060600280546101ba906103e7565b80601f01602080910402602001604051908101604052809291908181526020018280546101e6906103e7565b80156102335780601f1061020857610100808354040283529160200191610233565b820191906000526020600020905b81548152906001019060200180831161021657829003601f168201915b5050505050905090565b600080fd5b60007fffffffff0000000000000000000000000000000000000000000000000000000082169050919050565b61027781610242565b811461028257600080fd5b50565b6000813590506102948161026e565b92915050565b6000602082840312156102b0576102af61023d565b5b60006102be84828501610285565b91505092915050565b60008115159050919050565b6102dc816102c7565b82525050565b60006020820190506102f760008301846102d3565b92915050565b600081519050919050565b600082825260208201905092915050565b60005b8381101561033757808201518184015260208101905061031c565b83811115610346576000848401525b50505050565b6000601f19601f8301169050919050565b6000610368826102fd565b6103728185610308565b9350610382818560208601610319565b61038b8161034c565b840191505092915050565b600060208201905081810360008301526103b0818461035d565b905092915050565b7f4e487b7100000000000000000000000000000000000000000000000000000000600052602260045260246000fd5b600060028204905060018216806103ff57607f821691505b60208210811415610413576104126103b8565b5b5091905056fea2646970667358221220ac34cafc6db09eb483a01f2db856e012eaf3d3b09d28ca9b19b05c9e0871fe9d64736f6c634300080a0033",
  "immutableReferences": {},
  "source": "//SPDX-License-Identifier: MIT\r\npragma solidity ^0.8.0;\r\n\r\nimport \"./interfaces/IERC721Metadata.sol\";\r\nimport \"./ERC165.sol\";\r\n\r\n//this contract will contain our metadata\r\n\r\ncontract ERC721Metadata is IERC721Metadata, ERC165 {\r\n    string private _name;\r\n    string private _symbol;\r\n\r\n    //When you write strings in constructors remember they need to be stored in memory...They are temporarily stored in memory...Because strings are variables that have memory locations...\r\n    constructor(string memory named, string memory symbolified) {\r\n        _name = named;\r\n        _symbol = symbolified;\r\n        _registerInterface(\r\n            bytes4(keccak256(\"name()\") ^ keccak256(\"symbol(uint256)\"))\r\n        );\r\n    }\r\n\r\n    function name() external view override returns (string memory result) {\r\n        result = _name;\r\n    }\r\n\r\n    function symbol() external view override returns (string memory result) {\r\n        result = _symbol;\r\n    }\r\n}\r\n",
  "sourcePath": "E:\\Yazilim\\BlockChainVSCode\\SpecialNFTProject\\NftMarketPlaceDetail\\nft-marketplace-starter-kit\\src\\contracts\\ERC721Metadata.sol",
  "compiler": {
    "name": "solc",
    "version": "0.8.10+commit.fc410830.Emscripten.clang"
  },
  "schemaVersion": "3.4.3",
  "updatedAt": "2021-12-08T16:49:32.024Z",
  "devdoc": {
    "kind": "dev",
    "methods": {
      "supportsInterface(bytes4)": {
        "details": "Interface identification is specified in ERC-165. This function uses less than 30.000 gas",
        "params": {
          "interfaceId": "The interface identifier, as specified in ERC-165"
        },
        "returns": {
          "_0": "`true` if the contract implements 'interfaceId' and  'interfaceId' is not 0xffffffff, 'false' otherwise"
        }
      }
    },
    "version": 1
  },
  "userdoc": {
    "kind": "user",
    "methods": {
      "supportsInterface(bytes4)": {
        "notice": "Query if a contract implements an interface"
      }
    },
    "version": 1
  }
}